:10000000010000000D900D90E4BC02000100000012
:10001000001020002EF199540000000000000000A4
:1000200000000000000000000000000000000000D0
:100030000000000000000000000000000D900D9086
:10004000A55A0000002020080000008000000000E9
:1000500000000000000000000000000000000000A0
:100060000000000000000000000000000000000090
:100070000000000000000000000000000000000080
:100080000000000000000000000000000000000070
:1010000068AF0100D1D1200885D1200885D1200802
:1010100085D1200885D1200885D120080000000056
:10102000000000000000000000000000B19E200849
:1010300085D1200800000000019F2008DB852008E2
:1010400085D1200885D1200885D1200885D12008A8
:1010500085D1200885D1200885D1200885D1200898
:1010600085D1200885D12008C9060000BDFA2008D6
:1010700011DA2008794F210885D1200885D1200870
:1010800085D1200885D12008D14221087543210847
:1010900085D12008694221084D23210885D12008E7
:1010A00085D1200885D1200885D1200885D1200848
:1010B000993A2108B93A210868AF010085D1200882
:1010C000D1D120082106000085D1200885D1200833
:1010D00085D1200885D12008F5D9200805DA200817
:1010E00001D1200885D12008614F210883A2906991
:1010F00085D1200885D1200855D7200885D1200822
:1011000085D1200885D12008394221085142210883
:101110007941210891412108A9412108C1412108B3
:10112000D9412108F1412108094221082142210821
:1011300085D120086D4F210885D1200885D1200850
:1011400085D1200885D1200885D1200885D12008A7
:1011500085D1200885D1200885D1200885D1200897
:1011600085D1200885D12008655D21080000000098
:10117000000000000000000000000000000000006F
:101180000348044B834202D0034B03B11847704716
:10119000881D0000881D0000000000000548064B67
:1011A0001B1AD90F01EBA301491002D0034B03B165
:1011B00018477047881D0000881D000000000000CF
:1011C00010B5064C237843B9FFF7DAFF044B13B18F
:1011D0000448AFF300800123237010BD881D000078
:1011E0000000000008A8220808B5054B1BB10549FE
:1011F0000548AFF30080BDE80840FFF7CFBF00BF50
:10120000000000008C1D000008A8220830B585B041
:1012100008F086F9424C2060032000F0C1FB98B131
:10122000404800F0DDFB00F0E9FB3F4800F0D8FB50
:101230003E4800F0D5FB00F011FC3D4800F0D0FB2B
:1012400021683C4800F0CCFB00213B4A3B48ADF80C
:101250000C10CDE9011118F0F1FA044680B1384DB7
:101260002B684FF0FF31186906F086FB35482146A0
:101270001FF0BCFF2B68186906F0A3FB05B030BD5A
:10128000314820F01BF801A818F084FC014618B37F
:101290002E481FF0ABFF00221146012006F0CBFBC9
:1012A0002B4B1860E0B9012000F07AFB0028E5D054
:1012B0001C4800F095FB00F0A1FB264800F090FBD5
:1012C000254800F08DFB00F0C9FB194800F088FBB1
:1012D000224800F085FBD1E701A80AF0D7FDDAE744
:1012E00000221146012006F0A6FB1D4B18600028C5
:1012F0003AD1012000F054FB0028BFD0094800F08B
:101300006FFB00F07BFB134800F06AFB124800F013
:1013100067FB00F0A3FB064800F062FB1148D8E72A
:101320001000000076892208105122081C51220862
:10133000255122080A522208D9B021086C552208EA
:101340000C7501002A5222085E522208855222089A
:10135000A81D0000B5522208C1522208CB52220813
:10136000A41D0000ED522208BD4ABE48002106F02F
:101370008FF9B0B9012000F013FB90B1BA4800F02A
:101380002FFB00F03BFBB94800F02AFBB84800F007
:1013900027FB00F063FBB74800F022FBB64800F0E3
:1013A0001FFB00F085FDB54AB548002106F070F935
:1013B000B0B9012000F0F4FA90B1AB4800F010FB96
:1013C00000F01CFBA94800F00BFBA94800F008FB4B
:1013D00000F044FBA74800F003FBAA4800F000FB24
:1013E000032000F0DDFA90B19F4800F0F9FA00F018
:1013F00005FBA54800F0F4FAA44800F0F1FA00F06B
:101400002DFB9C4800F0ECFAA14800F0E9FA03201B
:1014100000F0C6FA90B1944800F0E2FA00F0EEFA5B
:10142000994800F0DDFA994800F0DAFA00F016FB6E
:10143000904800F0D5FA974800F0D2FA032000F067
:10144000AFFA90B1884800F0CBFA00F0D7FA8E4896
:1014500000F0C6FA8D4800F0C3FA00F0FFFA8548A4
:1014600000F0BEFA8C4800F0BBFA032000F098FAB6
:10147000B8B17D4800F0B4FA00F0C0FA824800F03C
:10148000AFFA824800F0ACFA00F0E8FA794800F0D0
:10149000A7FA00F045F9814B814A0146814800F0E6
:1014A0009FFA032000F07CFA90B16F4800F098FAA0
:1014B00000F0A4FA744800F093FA744800F090FA2F
:1014C00000F0CCFA6B4800F08BFA774800F088FA0D
:1014D000002004F035FA012004F032FA022004F072
:1014E0002FFA02F073F908F029F802F03DFE00F03F
:1014F0002BF903F091FC04F003FC01F021FE01F054
:10150000AFFB0221002002F06BF90221012002F062
:1015100067F909F023FF09F033FE012840F08780C6
:10152000032000F03DFA90B14F4800F059FA00F066
:1015300065FA554800F054FA544800F051FA00F0AA
:101540008DFA4C4800F04CFA584800F049FA40F641
:10155000B83006F020F908F091FE044600284CD17E
:10156000032000F01DFA90B13F4800F039FA00F076
:1015700045FA454800F034FA444800F031FA00F0EA
:101580006DFA3C4800F02CFA494800F029FA08F0BE
:101590000FFF0446B8B9032000F002FA90B13248B8
:1015A00000F01EFA00F02AFA374800F019FA37481E
:1015B00000F016FA00F052FA2E4800F011FA3D48F9
:1015C00000F00EFAFEE7012000F0EAF90028F9D059
:1015D000254800F005FA00F011FA244800F000FA5E
:1015E000234800F0FDF900F039FA224800F0F8F93C
:1015F0002146314800F0F4F9E4E7012000F0D0F989
:101600000028DFD0184800F0EBF900F0F7F9174890
:1016100000F0E6F9164800F0E3F900F01FFA15486B
:1016200000F0DEF92146254800F0DAF9CAE7022089
:1016300000F0B6F90028C5D00B4800F0D1F900F051
:10164000DDF91F4800F0CCF91E4800F0C9F900F0A0
:1016500005FA084800F0C4F91B4800F0C1F9B1E7E9
:10166000245522083931200876892208B5522208EB
:10167000C1522208255122080E5322080055220883
:101680002DBC20082B532208105122081C5122087F
:10169000868D220849532208525322087753220884
:1016A000805322088C532208B4612208A8532208D0
:1016B000F05322081B542208425422086B5422087B
:1016C000935422089F542208AB542208024A03482C
:1016D000002105F0DDBF00BF485522080D2220087B
:1016E00003281AD8DFE800F002080E140B4B1A7812
:1016F0008A4212D019707047084B5A788A420CD02F
:1017000059707047054B9A788A4206D09970704795
:10171000024BDA788A4218BFD97070471400000073
:1017200013B5074C00230222CDE900320A21054AF5
:10173000012320461FF0CAFD204602B010BD00BFA5
:10174000AD1D0000A855220810B535488AB010F02C
:10175000D5FA0A236422CDE9043222211623CDE9E9
:10176000023105230221CDE900311922082307A8FF
:1017700011F0B0F80446B8B1012000F011F998B1A9
:10178000284800F02DF900F039F9274800F028F931
:10179000264800F025F900F061F9254800F020F90D
:1017A0002448214600F01CF907A811F057F8044618
:1017B000B8B1012000F0F4F898B11A4800F010F91F
:1017C00000F01CF9184800F00BF9184800F008F96F
:1017D00000F044F9164800F003F91748214600F0DC
:1017E000FFF8012006F021FE144B1860B0B901206B
:1017F00000F0D6F890B10B4800F0F2F800F0FEF8D7
:10180000094800F0EDF8094800F0EAF800F026F980
:10181000074800F0E5F80A4800F0E2F80AB010BD09
:101820001C82042476892208B5522208C15222085B
:1018300025512208B655220806562208B81D000078
:101840004F56220830B51A4D0446286885B068B353
:101850004FF0FF3106F066FF01A9204611F05AF85B
:1018600001A810F0FBFF0446B8B1012000F098F881
:1018700098B1104800F0B4F800F0C0F80E4800F03D
:10188000AFF80E4800F0ACF800F0E8F80C4800F0B3
:10189000A7F80C48214600F0A3F80B4B286801225A
:1018A0001A7000231A46194606F0CFFC05B030BD69
:1018B000B81D000076892208B5522208C1522208BC
:1018C0002551220806562208B71D00001FB501A8A1
:1018D00010F0DCFF0446B8B1012000F061F898B1C7
:1018E0000D4800F07DF800F089F80C4800F078F819
:1018F0000B4800F075F800F0B1F80A4800F070F8F5
:101900000948214600F06CF8694601A811F06EF80C
:10191000009804B010BD00BF76892208B552220895
:10192000C1522208255122087956220808B5FFF72E
:10193000CDFF4FF47A71A0FB010108BD40BA80B21F
:10194000704740BA80B27047034608BA19BA704768
:10195000FFF7FABF30B501444FF6FF734AF20104B6
:10196000814202D158BA80B230BD10F8012B5340E9
:10197000082203F001055B080DB163409BB2013AF8
:1019800092B2002AF5D1EBE708B505F029FBFFF785
:101990009DFE05F07BFB00B908BD05F020FBF8E7D4
:1019A0000B4B1B78024683B10A4B1B78834234BF32
:1019B00000200120084B1B7833B1084B1B781341E2
:1019C00013F0010F08BF002070470120F2E700BFAD
:1019D0001A00000019000000BC1D000018000000E3
:1019E0000FB407B504A951F8040B01911FF032FDA3
:1019F00003B05DF804EB04B07047000073B505F068
:101A000095FC0E46054605F0ABFC4FF47A74024691
:101A1000A5FB040104FB061100231EF033FB3C214F
:101A2000B0FBF4F304FB1304B3FBF1F6009401FBE9
:101A300016334EF66022B0FBF2F2B2FBF1F501FB79
:101A400015220449B0FBF1F10348FFF7C9FF02B0CA
:101A500070BD00BF80EE3600C25622087047704746
:101A600070477047704708B50AF0BEFD0FF062FB83
:101A700013F084F90AF0F2F8BDE808400AF02EBD30
:101A8000704705F0DDBD08B500F00AF800F01AF85F
:101A9000BDE8084000F01CB8704770477047000070
:101AA00008B5054812F0CAF9044812F0C7F9BDE8B4
:101AB0000840034812F0C2B92D00000024000000C5
:101AC0001B00000001480AF0C9BF00BFE55622080C
:101AD00008B504480BF0B1F8BDE8084002480BF027
:101AE000ACB800BFED562208EA562208034901228D
:101AF0000B68824023EA02030B607047801E0000DF
:101B0000044A0123116883400B431360024B186899
:101B100006F014B8801E0000A41D000010B40A4B8B
:101B200001461A4611F8014B02F8014BD0F801406A
:101B3000C3F80140898891805DF8044B828B1A813B
:101B40000120FFF7DDBF00BF741E0000064B00F14F
:101B50000C0250F8041B43F8041B9042F9D1028890
:101B60001A801820FFF7CCBFBD1D00001920FFF719
:101B7000C7BF0000044B02681A6082889A8082798D
:101B80009A710220FFF7BCBF6D1E000010B5014620
:101B90000446074814F087FE064A2368136063680A
:101BA0005360A3689360BDE810401720FFF7A8BFFB
:101BB000E01D0000CC1D000008B5064903680B605D
:101BC000436805484B6014F06EFEBDE808401620DF
:101BD000FFF796BFD81D0000E01D0000044B02680F
:101BE0001A6042685A6002891A810120FFF788BF93
:101BF000741E00002DE9F043904B1A780B899A422D
:101C0000A3B00C4646D1CB7A323B062B00F2F680CD
:101C1000DFE813F033000700D2009500A900BD00F3
:101C2000E200874D2B684FF0FF31186905F0A4FEE4
:101C300084481FF043FB2B68186905F0C2FE03209F
:101C4000FFF7AEFE90B18048FFF7CAFEFFF7D6FE61
:101C50007E48FFF7C5FE7E48FFF7C2FEFFF7FEFE97
:101C60007C48FFF7BDFE7C48FFF7BAFE7B4B0022A5
:101C70001A70042008F09AFF0CE032220021784804
:101C80001FF0EAFC764804F10E011FF0F8FD0D206C
:101C9000FFF736FF734B22891B889A424CD10320F1
:101CA000FFF77EFE90B16848FFF79AFEFFF7A6FEA9
:101CB0006648FFF795FE6648FFF792FEFFF7CEFEF7
:101CC0006448FFF78DFE6848FFF78AFE0320FFF7A0
:101CD00067FE40B1A37A04F10A06002B40F0A7800A
:101CE0006248FFF77DFEA57A04F10B012A460DF14B
:101CF00005001FF01DFE5E488DF8045000680023AB
:101D00000A2201A906F0A1FAB0B90120FFF748FEA6
:101D100090B14D48FFF764FEFFF770FE5548FFF79E
:101D20005FFE5548FFF75CFEFFF798FE4948FFF756
:101D300057FE5248FFF754FE23B0BDE8F0838B7B7B
:101D40004F4A3F4D303B13702B684FF0FF311869FD
:101D500005F012FE4B481FF0B1FA2B68186905F028
:101D600030FE0E2094E7364D47480E311FF087FDB8
:101D70002B684FF0FF31186905F0FEFD43481FF056
:101D80009DFA2B68186905F01CFE052072E72C4DA2
:101D90002B684FF0FF31186905F0EEFD3C481FF04D
:101DA0008DFA2B68186905F00CFE3A4B1B780BB1C5
:101DB00010206DE711206BE7214D2B684FF0FF31AC
:101DC000186905F0D9FD34481FF078FA2B681869B6
:101DD00005F0F7FD0B204DE7194D1320FFF790FE9E
:101DE0002B684FF0FF31186905F0C6FD2B481FF036
:101DF00065FA2B68186905F0E4FD4BE7104D2B6878
:101E00004FF0FF31186905F0B7FD2548EFE7484668
:101E1000FFF7E6FD4046FFF7E3FD16F8011F3846E1
:101E2000FFF7DEFDA37A01359D42F0D358E7DFF8D6
:101E300078801C4FDFF874900025EBE7B03000008D
:101E40000C750100F05622087689220810512208EC
:101E50001C51220825512208065722083C01000087
:101E60003B1E000028200000B1572208868D220862
:101E7000A8300000B5522208C1522208C1572208DA
:101E8000F81D00001E572208F91D000033572208D4
:101E9000455722083C6401006357220885572208F1
:101EA0009957220883582208888D22088E682208B4
:101EB0002DE9F041AAB01B220021864B229323A8D2
:101EC0001FF0CAFB844BDFF8388200241C6001F04D
:101ED0004FFA00F071FC814B814A82490594CDE9AB
:101EE0000343814B0293814B2046CDE900432346B7
:101EF00013F01AFE7E48214613F030FE7D4B089405
:101F0000CDE906437C4B2246CDE9024321462346D8
:101F100020461DADCDE90B44CDE90944CDE904448B
:101F2000CDE90044CDE91144CDE90F44CDE90D449C
:101F300013F01EFE7149159413222846CDE9194469
:101F4000CDE91B44ADF858401FF0ACFB6C498DF84F
:101F5000874028461FF0CAFB15AE3746002800F020
:101F60009280062C40F083800320FFF719FD08B310
:101F70006448FFF735FDFFF741FD6348FFF730FD8B
:101F80006248FFF72DFDFFF769FD6148FFF728FD67
:101F90009DF8593002939DF8583001939DF85730C1
:101FA00000939DF855209DF856309DF854105948DF
:101FB000FFF716FD9DF8593004939DF858300393B0
:101FC0009DF8573002939DF8563001939DF8553097
:101FD0000093514A9DF85430102119A81FF076F94A
:101FE0000320FFF7DDFC98B14648FFF7F9FCFFF747
:101FF00005FD4548FFF7F4FC4448FFF7F1FCFFF707
:102000002DFD4348FFF7ECFC444819A9FFF7E8FC15
:1020100019A814F045FB384614F032FB11238DF853
:102020008B3009238DF88C300DF18D0419AB1A46D5
:1020300003CAAA4220606160134604F10804F6D185
:10204000374C152122A813F0AFF813F07FF823685E
:102050004FF0FF31186905F08FFC32481FF02EF960
:102060002368186905F0ADFC2AB0BDE8F0811022A4
:1020700000211EF0F7FA414606F8010B002001345A
:102080001FF034FB6AE7062C3FF46EAF0120FFF728
:1020900087FC90B11B48FFF7A3FCFFF7AFFC224879
:1020A000FFF79EFC2148FFF79BFCFFF7D7FC184881
:1020B000FFF796FC1E48FFF793FC1E4A10689288B3
:1020C000179017ABADF8602093E803001590ADF8BA
:1020D000581049E702010600801E00008D2B2008E1
:1020E000752B2008DD2B20081D2B20086D2B2008C8
:1020F0004D2B2008B92B2008F52B2008F357220878
:102100000558220876892208105122081C512208FD
:1021100025512208375822086C582208885822086E
:102120000C7501009E582208B5522208C15222089F
:10213000075822080F5A22082DE9F047002496B0CC
:102140003E22214606A805941FF086FAB64BB74EEC
:102150001D8828461EF05CF9306080B9B44C2368B5
:102160004FF0FF31186905F007FCB2481FF0A6F8E0
:102170002368186905F025FC16B0BDE8F0872A46EB
:1021800021461FF069FAAC4FDFF8EC823C6814F08E
:102190000104FBD1234601220133202B06D1D8F8BC
:1021A00000004FF0FF3105F097FCEFE7396802FAC5
:1021B00003F00842F0D0013B182BE7D801A252F8F7
:1021C00023F000BF29322008D13220087D342008B6
:1021D0008D3120088D3120088D3120088D31200867
:1021E0008D3120088D3120088D3120088D31200857
:1021F0008D312008073420080F342008BF33200811
:102200007D332008AB332008DB3320082933200836
:10221000F13320081D352008A3352008A7352008F4
:10222000AB352008F53520080120FFF75FFC834817
:10223000E82113F03AF8044670B17D4D2B684FF059
:10224000FF31186905F098FB7D4821461EF0CEFF4E
:102250002B68186905F0B5FB4FF4C873182200937A
:1022600076480023114612F0BBFF044670B1704D52
:102270002B684FF0FF31186905F07EFB714821464D
:102280001EF0B4FF2B68186905F09BFB012000F0DD
:1022900013FC0320FFF784FB00283FF477AF6A4864
:1022A000FFF79EFBFFF7AAFB6848FFF799FB68481A
:1022B000FFF796FBFFF7D2FB6648FFF791FB5F49FC
:1022C000654814F0F0FA01466448FFF789FB5DE7C2
:1022D000574D0220FFF70AFC2B684FF0FF311869B9
:1022E00005F04AFB5E495C4814F0DDFA01465D48A2
:1022F0001EF07CFF2B68186905F063FB12F026FFC7
:1023000004460028FAD12B684FF0FF31186905F018
:1023100033FB55481EF0D2FF2B68186905F051FBBE
:10232000204600F0C9FB31E700241320CDE9024428
:10233000ADF81040FFF7DAFB4222214605A81FF056
:102340008BF902A817F026FC00287FF41FAF40F697
:102350000823ADF8143002AB03CB1B88ADF81E3058
:10236000424BCDF81600CDF81A10188805AA422164
:1023700012F07EFF02A809F089FD07E71020FFF7A1
:10238000B5FB402200210DF116001FF065F9384B16
:102390001B788DF8153007238DF81430334B05AAC0
:1023A0001888422112F064FFF0E61120FFF79EFB2F
:1023B000412200210DF115001FF04EF9EBE70F202F
:1023C000FFF794FB402200210DF116001FF044F9A5
:1023D0004FF48273ADF81430E0E71220FFF786FB6C
:1023E000412200210DF115001FF036F90223D3E739
:1023F0001420FFF77BFB412200210DF115001FF097
:102400002BF90123C8E70D20FFF770FBBEE60E2075
:10241000FFF76CFB174B1B78002B7FF4B7AE052042
:1024200008F0C4FBB2E600BF3E010000F41D00004E
:102430000C750100BC582208801E0000751E0000AB
:10244000E65822080F5922087689220810512208DE
:102450001C51220825512208E01D00004159220884
:102460006D1E00005F59220887592208AE30000017
:102470003C640100F81D0000A41D00000320FFF7CC
:1024800035FB412200210DF115001FF0E5F8032373
:102490008DF814303368DFF880911B688DF81530A3
:1024A000554B05AA1888422112F0E2FED6F800A08A
:1024B000DAF80030E5B2AB4204F101040ED84F4C1B
:1024C00023684FF0FF31186905F056FA4C481EF0AA
:1024D000F5FE2368186905F074FA57E642220021D8
:1024E00005A81FF0B9F82E235D430AEB05030C3550
:1024F0005B7A8DF814300AEB05012C230DF11600E0
:102500008DF815301FF0BBF9B9F8000005AA42217B
:1025100012F0AEFE0A2005F03EF9C7E7394B002560
:1025200015209C680295ADF80C50FFF7DFFA29469C
:102530003F220DF117001FF08FF84FF48173ADF8B3
:10254000143002A92C2301208DF8163017F0E2FA7E
:10255000F8B12C238DF81D30C4F307238DF81F30FC
:10256000C4F307438DF81E408DF82030C4F3076490
:10257000214B8DF82140214C188805AA422112F0E8
:1025800077FE23684FF0FF31186905F0F5F91E4812
:102590009DE70298BDF80C30CDF81700ADF81B3060
:1025A000D7E7162030E717202EE71820FFF79EFA0E
:1025B000164B9B799B067FF5E9AD15484FF4A47245
:1025C000FB2112F025FE044600283FF4DFAD0B4D41
:1025D0002B684FF0FF31186905F0CEF921460D4800
:1025E0001EF004FE2B68186905F0EBF91820FFF7C0
:1025F00087FACBE5192007E7AE3000000C75010023
:102600009E592208A8630100C2592208BD1D00007E
:10261000751E0000DA592208AC300000013870B590
:102620000D46144604281BD8DFE800F003121416E8
:1026300018000C4E002130681FF00EF8306822465A
:1026400029461FF075F90320BDE87040FFF758BA1E
:102650001520F9E71420F7E70F20F5E71220F3E73C
:1026600070BD00BFF41D000003681BBA4B60838877
:102670005BBA0B81C3885BBA4B81437A0B73037AD5
:102680004B73C37A8B73837ACB73C37B0B74837B5B
:102690004B74437B8B74037BCB7470472DE9F04103
:1026A000C4B00C469DF828810746164600214FF419
:1026B000887268461D461EF0CFFF022342F60302D1
:1026C000B8F1100FADF8044000978DF80830ADF860
:1026D0000C208DF81C3009AC13D1142329460DF1C0
:1026E0002200ADF81E308DF8206014F057F84BAB87
:1026F0000FCB84E80F00684612F0B5FD44B0BDE88A
:10270000F081042329460DF12200ADF81E308DF82A
:10271000206014F043F8BDF82C11204614F03EF868
:10272000E9E782B02DE9F041C4B00E464AA981E83C
:102730000C0007464FF48872002168469DF83C81E2
:102740004AAD1EF089FF9DF84431ADF806300FCD3B
:1027500002AC0FC42B6850992360E62208A8ADF89C
:102760001E200097ADF804608DF81C801FF0E0F883
:10277000684612F078FD18F0100F18D04FF48872E8
:10278000002168461EF068FF42F60212022301365D
:10279000ADF80C2068460A220097ADF804608DF869
:1027A00008308DF81C20ADF81E3012F05CFD44B0EE
:1027B000BDE8F04102B070472DE9F043C5B006AD69
:1027C000002306936B60A84B0AAA03F110069046FB
:1027D00018685968144603C40833B3422246F7D137
:1027E000A249A34C4046FFF73FFF10230B70019511
:1027F0000B6900930FC912F01EFD069B2360032096
:10280000BDF81C30A380FFF7CBF898B19948FFF7CB
:10281000E7F8FFF7F3F89848FFF7E2F89748FFF773
:10282000DFF8FFF71BF99648FFF7DAF8A18895481B
:10283000FFF7D6F80021E2220BA80A911EF00CFF48
:10284000914B2E4603F1100718685968324603C2AF
:102850000833BB421646F7D1DFF85492102349469D
:10286000284689F80030FFF7FFFEA1884F4601F1A6
:10287000020E01F1010C0FCF6E460FC63B683360AC
:102880001FFA8CF11FFA8EF320680822FFF706FF6B
:102890000023A688CDE90483082303934B4493E8DF
:1028A00007008DE80700023699E80C002068B1B2F5
:1028B000FFF737FFA388754E023303203380FFF7FD
:1028C0006FF898B16B48FFF78BF8FFF797F86A48F5
:1028D000FFF786F86948FFF783F8FFF7BFF8684805
:1028E000FFF77EF831886A48FFF77AF80021E22284
:1028F0000BA80A911EF0B0FE664B2E4603F110079E
:1029000018685968324603C20833BB421646F7D1ED
:10291000DFF8A09110234946284689F80030FFF7D8
:10292000A3FEA1884F4601F1040E01F1030C0FCF65
:102930006E460FC63B6833601FFA8CF11FFA8EF3A8
:1029400020680222FFF7AAFE8023A688CDE904832F
:102950000223039309F1080393E807008DE80700B9
:10296000043699E80C002068B1B2FFF7DAFEA388BC
:10297000494E043303203380FFF712F898B13D48E5
:10298000FFF72EF8FFF73AF83B48FFF729F83B48E6
:10299000FFF726F8FFF762F83948FFF721F831888A
:1029A0003E48FFF71DF80021E2220BA80A911EF015
:1029B00053FE3B4B2E4603F1100718685968324608
:1029C00003C20833BB421646F7D1364F4FF0100909
:1029D0002846394687F80090FFF746FEA1883E4614
:1029E00001F1060E01F1050C0FCE6D460FC53368DF
:1029F0002B601FFA8CF11FFA8EF320684A46FFF70E
:102A00004DFE0023A588CDF80C90CDE9048307F195
:102A1000080393E807008DE80700063597E80C00E7
:102A20002068A9B2FFF77DFEA3881F4D063303205F
:102A30002B80FEF7B5FF98B10E48FEF7D1FFFEF7E9
:102A4000DDFF0D48FEF7CCFF0C48FEF7C9FFFFF78E
:102A500005F80B48FEF7C4FF29881448FEF7C0FFAD
:102A600045B0BDE8F08300BFFB5A220810200000EB
:102A7000CC1F000076892208105122081C51220820
:102A800025512208155A22087E5A220828200000C3
:102A90003B5A22088F5A220826200000505A22084A
:102AA000A05A2208D41F000024200000655A2208E2
:102AB000E81F0000FC1F0000144B10B504461870FE
:102AC00020B90221BDE8104000F08ABE012802D1E1
:102AD00001460020F6E70120FEF762FF98B10C489E
:102AE000FEF77EFFFEF78AFF0A48FEF779FF0A48E5
:102AF000FEF776FFFEF7B2FF0848FEF771FF0848C1
:102B00002146FEF76DFF00210846DBE7C81F0000E5
:102B100076892208B5522208C1522208255122087E
:102B2000B15A220838B5084D284613F0DDFD2C783F
:102B300044B1064B2246691C18461EF0F9FE0022DD
:102B4000025538BD0248FCE7841F0000B81F000092
:102B5000D05A22082DE9F843324B1B78012B064648
:102B60000C4643D10320FEF71BFF90B12E48FEF721
:102B700037FFFEF743FF2D48FEF732FF2C48FEF7E4
:102B80002FFFFEF76BFF2B48FEF72AFF2A48FEF7C0
:102B900027FF0320FEF704FF08BB284B22463146DF
:102BA00018461EF0C5FE264BE1B280F8FF10024623
:102BB0001888BDE8F84312F05BBB15B13846FEF744
:102BC0000FFF4046FEF70CFF715D4846FEF708FF19
:102BD0000135AC42F1D81B48FEF702FFDDE71A4F82
:102BE000DFF87480DFF874900025F2E70120FEF72B
:102BF000D7FEA0B10C48FEF7F3FEFEF7FFFE134828
:102C0000FEF7EEFE1248FEF7EBFEFEF727FF09483F
:102C1000FEF7E6FEBDE8F8430E48FEF7E1BEBDE86C
:102C2000F88300BFC81F00007689220810512208CF
:102C30001C51220825512208D85A2208841E00005F
:102C400026200000868D22088E682208B5522208B0
:102C5000C1522208E85A2208888D22088358220887
:102C600008B500F035FC002008BD00002DE9F04F4C
:102C7000DFF8B0B15F4C604EA3B0DBF800000A2271
:102C800001A905F0B0FC0128F7D19DF80530012B12
:102C900017D0FEF785FEA0B12046FEF7A1FEFEF795
:102CA000ADFE3046FEF79CFE5448FEF799FEFEF757
:102CB000D5FE5348FEF794FE9DF805105148FEF7E7
:102CC0008FFE9DF806509DF80430AB4219D00120CC
:102CD000FEF766FEA8B12046FEF782FEFEF78EFEE6
:102CE0003046FEF77DFE4548FEF77AFEFEF7B6FE5B
:102CF0004348FEF775FE9DF8041043482A46FEF748
:102D00006FFE9DF8041001F188036B44023989B20B
:102D10000DF1050033F8857CFEF71CFE8742054661
:102D200018D00120FEF73CFEA0B12046FEF758FE69
:102D3000FEF764FE3046FEF753FE3048FEF750FEC5
:102D4000FEF78CFE2E48FEF74BFE30482A463946E9
:102D5000FEF746FE2E4D002795F800909DF80830AE
:102D60004B4541D1D5F80480B8F1000F3CD095F81F
:102D700008A09DF80430534519D00120FEF710FE3D
:102D8000A8B12046FEF72CFEFEF738FE3046FEF7CF
:102D900027FE1A48FEF724FEFEF760FE1848FEF7ED
:102DA0001FFE9DF804101B485246FEF719FE042032
:102DB000FEF7F6FD98B12046FEF712FEFEF71EFE66
:102DC0001548FEF70DFE1548FEF70AFEFEF746FE13
:102DD0000B48FEF705FE12484946FEF701FE9DF836
:102DE00004100DF10500C0470137112F05F10C0546
:102DF000B2D142E776892208B5522208C152220890
:102E0000255122080B5B2208585B2208265B22080A
:102E1000C45C22084D5B22088A5B2208965B22086C
:102E2000A05B2208A830000008B54179007900F0C5
:102E300027FC002008BD000007B5094A1123062120
:102E40006846CDE90023FEF785FD0821ADF80600B0
:102E50006846FFF77FFE002003B05DF804FB00BF6B
:102E60000208F20B07B5094A112306216846CDE98D
:102E70000023FEF76FFD0821ADF806006846FFF756
:102E800069FE002003B05DF804FB00BF0208F20AEF
:102E900007B5094A112306216846CDE90023FEF74C
:102EA00059FD0821ADF806006846FFF753FE0020E3
:102EB00003B05DF804FB00BF0208F20D07B5094A34
:102EC000112306216846CDE90023FEF743FD0821C2
:102ED000ADF806006846FFF73DFE002003B05DF840
:102EE00004FB00BF0208F20C13B504790420FEF7BE
:102EF00057FD98B11448FEF773FDFEF77FFD1348A8
:102F0000FEF76EFD1248FEF76BFDFEF7A7FD1148B8
:102F1000FEF766FD10482146FEF762FD0F4B009359
:102F20000024112305216846ADF804308DF80640D1
:102F3000FEF710FD0721ADF805006846FFF70AFE11
:102F4000204602B010BD00BF768922088A5B2208A5
:102F5000965B220825512208BF5B22080207F21A5D
:102F600013B504460420FEF71BFD98B11248FEF786
:102F700037FDFEF743FD1148FEF732FD1048FEF71E
:102F80002FFDFEF76BFD0F48FEF72AFD21790E4855
:102F9000FEF726FD0D4A112306216846CDE90023E0
:102FA000FEF7D8FC0821ADF806006846FFF7D2FD11
:102FB000002002B010BD00BF768922088A5B22087B
:102FC000965B220825512208D05B22080208F204F1
:102FD00000B58DB02B2200210DF105001EF03CFB49
:102FE000302202238DF80120F2228DF800308DF876
:102FF00002208DF8033011228DF80A30154B8DF820
:10300000042001228DF808208DF80D2003F10C0119
:103010000DF10E0253F8040B42F8040B8B42F9D168
:103020001B781370FFF77EFDD0F80330CDF81B300E
:10303000D0F80730CDF81F302E216846FEF78AFC05
:103040003021ADF82E006846FFF784FD00200DB05A
:103050005DF804FBE55B220810B5104A86B0002439
:1030600011236846CDE9022304948DF8144013F02F
:1030700040FB0098BDF80430CDF80D000B2102A8EC
:10308000ADF81130FEF766FC0D21ADF8130002A873
:10309000FFF760FD204606B010BD00BF020DF20133
:1030A00008B500F07FFA002008BD000010B5124AF4
:1030B00086B000241123CDE902230494ADF8144016
:1030C0008DF81640FEF732FCFEF73EFCCDE900011C
:1030D0006B4603CBCDF80D00CDF8111018460D212D
:1030E000FEF738FC0F21ADF8150002A8FFF732FDFE
:1030F000204606B010BD00BF020FF20507B503461B
:1031000040689968FEF724FC4FF47A7200231CF0A3
:10311000B9FFFEF797FB094A112306216846CDE95E
:103120000023FEF717FC0821ADF806006846FFF7FC
:1031300011FD002003B05DF804FB00BF0208F20699
:1031400030B5414B1A7885B0002A7BD10125812109
:1031500005201D7005F01BF83C4C2060D0B92846B6
:10316000FEF71EFC00286DD03948FEF739FCFEF74B
:1031700045FC3848FEF734FC3748FEF731FCFEF7D3
:103180006DFC3648FEF72CFC354805B0BDE83040F4
:10319000FEF726BC0320FEF703FC90B12C48FEF797
:1031A0001FFCFEF72BFC2F48FEF71AFC2E48FEF7FB
:1031B00017FCFEF753FC2948FEF712FC2B48FEF7DC
:1031C0000FFC2B4B02932B4B01931B2300932A499B
:1031D0002A4800234FF4806220F076FFE0B90120F6
:1031E000FEF7DEFB90B11A48FEF7FAFBFEF706FC8D
:1031F0001848FEF7F5FB1848FEF7F2FBFEF72EFC29
:103200001648FEF7EDFB1E48FEF7EAFB206805B006
:10321000BDE8304005F002BC0320FEF7C1FB88B1D9
:103220000B48FEF7DDFBFEF7E9FB0E48FEF7D8FB87
:103230000D48FEF7D5FBFEF711FC0848FEF7D0FB62
:103240001048A2E705B030BDA4300000A83000004F
:1032500076892208B5522208C15222082551220837
:10326000F35B2208105122081C5122081B5C220823
:103270002C200000A4200000475C22086D3C2008A0
:10328000625C2208905C220882B02DE9F041C4B053
:103290000E464AA981E80C0007464FF488720021C7
:1032A00068464AAD9DF83C811EF0D6F90FCD02ACC0
:1032B0000FC42B6850992360422208A8ADF81E2045
:1032C0000097ADF804608DF81C801EF031FB684655
:1032D00011F0C9FF18F0100F18D04FF488720021B8
:1032E00068461EF0B9F942F6021202230136ADF823
:1032F0000C2068460A220097ADF804608DF808306B
:103300008DF81C20ADF81E3011F0ADFF44B0BDE8C3
:10331000F04102B07047F0B5C5B007460E461546FD
:1033200000214FF4887268461C461EF095F902236E
:1033300042F603028DF808308DF81C302146062332
:103340000DF12200ADF80C20ADF81E300097ADF85D
:1033500004608DF8205013F021FABDF8281109A857
:1033600013F01CFA684611F07EFF45B0F0BD000076
:103370002DE9F0419EB008AC002714220021204620
:103380001EF06AF939463E220EA8CDE906770D9760
:103390001EF062F902238DF8203006AD4AF6BB23F9
:1033A0000195ADF82430009794E80F0011F043FF29
:1033B000BDF81C10069841F6A1228B1C0131ADF816
:1033C000242000929BB2082289B2FFF7A4FFBDF827
:1033D0001C602F4B02361E700DF134080823CDF807
:1033E000108003930AAD95E807008DE80700069862
:1033F00094E80C00B1B2FFF747FFBDF81C10069827
:1034000041F6B1320B1D0331ADF8242000929BB27E
:103410000A2289B2FFF77FFFBDF81C601D4B0436FE
:10342000B6B21E800A23CDF81080039395E80700FA
:103430008DE80700069894E80C003146FFF724FF5A
:10344000BDF81C10069841F6C1428B1D0531ADF840
:10345000242000929BB2122289B2FFF75CFFBDF8D4
:103460001C600D4B0636B6B21E801223CDF81080BC
:10347000039395E807008DE80700069894E80C0090
:103480003146FFF701FF38461EB0BDE8F08100BFAE
:10349000B0300000AE300000AC30000007B50023B3
:1034A00001930A4B01A9186805F03DF8019B4BB147
:1034B0004FF0E0234FF08052C3F8042DBFF34F8F3D
:1034C000BFF36F8F03B05DF804FB00BF30710000E5
:1034D00030B5032285B00021012004F058FE244CB1
:1034E000206070B1234B009300232348234D1A46DC
:1034F0004FF47A7105F068FC286030B9206805F057
:103500008DFA4FF0FF3005B030BD1D4B02931D4BBF
:1035100001931A2300931C491C4800234FF4805246
:1035200020F0D2FD08BB0120FEF73AFA90B118480E
:10353000FEF756FAFEF762FA1648FEF751FA1648F9
:10354000FEF74EFAFEF78AFA1448FEF749FA1448D5
:10355000FEF746FA206805F061FA00230093286818
:103560001A46052105F05EFCCBE70020CBE700BF43
:10357000307100009D442008905D220834710000E5
:10358000B43000002C310000A05D22082146200844
:1035900076892208B5522208C152220825512208F4
:1035A000AF5D220810B51D4A88B01123CDE9012373
:1035B00000244FF48033CDE9034340F2811045F2FB
:1035C0000263CDE90534ADF81C40FEF7B7F9ADF85C
:1035D00016000120FEF7B2F9ADF8180042F23000F3
:1035E000FEF7ACF9ADF81A00FFF79CFAD0F80630F8
:1035F000CDF80930D0F80A30CDF80D301821062367
:1036000001A88DF81130FEF7A5F91A21ADF81C00BC
:1036100001A8FFF79FFA204608B010BD021AF21663
:1036200083B5DFF85480DFF85490124ED8F80000CC
:103630004FF0FF3105F076F801280446F6D1FFF788
:10364000B1FFD9F80020002AF0D000254FF47A719C
:103650002B464A4330680095042105F0E3FB3768A8
:1036600020F0EEFC009502462B462146384605F038
:10367000D9FBDBE734710000307100002C710000D1
:10368000F02907B5034604D8012815D0022803D035
:1036900078B14FF0FF3009E00D4A002313600D4868
:1036A0001A460068194604F0D0FD002003B05DF80A
:1036B00004FB074A1160F2E7054A0748002313603C
:1036C00000931A460321006805F0ACFBEDE700BF4C
:1036D0002C710000307100003471000070B5244E70
:1036E0003368002B33D0013B3360002B2FD1214CAA
:1036F000214D2378618815F83320914206D305EBDC
:10370000C3035B78DB0926D0002363801B4B6288F0
:103710001878237805EBC3035B6803EB82039B787F
:10372000DB0722D509F0A2FA2278638815F8321057
:1037300001290AD005EBC2056A6802EB83025288B0
:10374000012A8CBF52080122326001336380BDE838
:10375000704000F043B92379237005EBC303E2887E
:103760005B786280DB09CFD1D0E709F0A7FADBE70D
:103770004071000038710000C45D2208ED56220837
:1037800007B50123CDE90033044A054800230A2187
:1037900003F038FE03B05DF804FB00BFDD462008EF
:1037A00044710000064B10B500241C705C801C7135
:1037B000DC80044B187809F081FA034B1C6010BDC3
:1037C00038710000ED5622084071000008B500F085
:1037D000B7F8FFF7E7FFBDE80840FFF7D1BF0000EB
:1037E00038B548BB03292ED8184A1578A9422AD0E3
:1037F000174C04EBC10304EBC5045B786478E4095F
:103800004FEAD31313D063B1508011701171D0807F
:10381000104B187809F052FA0F4A0123136018462A
:1038200038BD50881571D08011705380F0E7002B9F
:10383000F5D01171D480EBE7012804D1BDE8384000
:10384000084600F09BB80023E9E700BF387100008C
:10385000C45D2208ED562208407100000F4A13781B
:10386000052B17D850781BB9392815D90FF0A0BDF2
:103870005A1E012A05D9032B08D0042B08D006288C
:1038800000E0102834BF0020212070470A28F9E703
:103890000C28F7E7212070471846704750000000B9
:1038A00038B5FFF7DBFF88BB224B1D785C78052D10
:1038B0000AD921484FF4CE7110F0B8FB1E484FF4DE
:1038C000D27110F0B3FB2EE0032D0ED9042D28D1B8
:1038D0000B2C04D9184840F2A11110F0A7FB2401C9
:1038E00004F1105404F598240EE085B94B2C04D94A
:1038F00011484FF4CF7110F099FB04EB051424012B
:1039000004F18C4404F598140023636038BD012D44
:1039100001D13B2CEBE7022D01D12B2CE7E71B2C2F
:10392000E5E7052CCAD8054BA4001A596FF34512D8
:103930001A51EBE750000000FC5D22081C860424AD
:103940000B4A13785178907843EA012310B543EA83
:1039500000400FF0EDFD044640B9064B187058804A
:103960001871D880FFF79CFF034B1C6010BD00BF8F
:1039700050000000647100006C710000032838B52D
:10398000014622D8124A157885421ED0114C04EB0C
:10399000C00304EBC5045B78D8096378DB0911D058
:1039A00028B10023538011701171D38004E0538833
:1039B0001571D38011705080FFF772FF064B012004
:1039C000186001E00028EFD138BD0020FCE700BFFF
:1039D00064710000B05E22086C7100002DE9F041B6
:1039E000494E3368002B75D0013B3360002B71D1F9
:1039F000464F474D3B78798815F83320914206D3DE
:103A000005EBC3035B78DB0921D000237B803B7887
:103A10007A8805EBC3035B6803EB82039B78DB07C3
:103A20006FD5FFF71BFF002841D13A4B93F8008078
:103A30005C78B8F1050F14D937484FF49B7110F03A
:103A4000F5FA35484FF49F7110F0F0FA52E03B79E7
:103A50003B7005EBC303FA885B787A80DB09D4D12D
:103A6000D5E7B8F1030F0FD9B8F1040F40D10B2CF3
:103A700004D9294840F23B1110F0D8FA240104F18E
:103A8000105404F5982410E0B8F1000F24D14B2C09
:103A900004D921484FF49C7110F0C8FA04EB0814C3
:103AA000240104F18C4404F59814012363603A78EE
:103AB0007B8815F8321001290AD005EBC2056A6827
:103AC00002EB83025288012A8CBF52080122326025
:103AD00001337B80BDE8F081B8F1010F01D13B2CAF
:103AE000D6E7B8F1020F01D12B2CD1E71B2CCFE781
:103AF000052CA6D8094BA4001A5942F020021A51ED
:103B0000D5E7FFF7CDFED2E76C71000064710000CD
:103B1000B05E220850000000FC5D22081C860424D0
:103B2000543054289ABF024B18566FF00400704767
:103B30000F5F220810B5094C23686BB9012004F00F
:103B400074FC206040B94FF0140383F31188BFF375
:103B50006F8FBFF34F8FFEE710BD00BF7071000085
:103B6000F8B50F461446064668B361B3542005F015
:103B70007FFB054650B304F00103A20748BF43F0A2
:103B8000020314F0030F18BF0323600748BF43F478
:103B90008073210748BF43F40063E2060D4848BF25
:103BA00043F480633A4629461BF0A4FB044610B94F
:103BB00035602046F8BD284605F030FC2046BDE8BB
:103BC000F840FFF7ADBF6FF01504F2E76FF00B049C
:103BD000EFE700BFC871000070B5044680B1066809
:103BE00076B1314608481BF0A1FB0546304605F08A
:103BF00015FC002323602846BDE87040FFF790BF06
:103C00006FF0080070BD00BFC871000010B513460A
:103C10000C4660B1016851B14CB1074822461BF017
:103C2000B5FB031E05DABDE81040FFF779BF6FF062
:103C30001503184610BD00BFC871000010B513462B
:103C40000C4660B1016851B14CB1074822461BF0E7
:103C5000D1FB031E05DABDE81040FFF761BF6FF02E
:103C60001503184610BD00BFC871000010B51346FB
:103C70000C4668B1016859B1022A0CD8084822469E
:103C80001BF0D0FB844209D0BDE81040FFF748BFCD
:103C90006FF0080010BD6FF01500FBE70020F9E79A
:103CA000C871000030B50D46C3B00146F8B1F5B19A
:103CB00010486A461BF0FCFA044620B143B0BDE848
:103CC0003040FFF72DBFFF2202A928461DF0EAFC75
:103CD000019BC5F800319DF8003085F8FF40013B9D
:103CE00018BF012385F80431204643B030BD6FF082
:103CF0001504F9E7C871000008B5014630B1054860
:103D00001BF0A8FBBDE80840FFF70ABF6FF01500E5
:103D100008BD00BFC871000070B50C460646B8B1BA
:103D2000B1B1342005F0A4FA0546A0B122460146FF
:103D30000A481BF03FFC044638B1284605F06EFBEC
:103D40002046BDE87040FFF7EBBE3560204670BDF1
:103D50006FF01504FAE76FF00B04F7E7C871000085
:103D600010B50C46C2B020B3016811B30CB31248B1
:103D70006A461BF081FC031E04DA42B0BDE8104025
:103D8000FFF7CEBE12D0FF2202A920461DF08AFC0A
:103D9000002384F8FF30019BC4F800319DF8003007
:103DA000013B18BF012384F804310123184642B0B7
:103DB00010BD6FF01503F9E7C871000070B5044637
:103DC00080B1066876B1314608481BF047FC0546CD
:103DD000304605F023FB002323602846BDE87040F1
:103DE000FFF79EBE6FF0080070BD00BFC8710000F5
:103DF00038B50446002847D02549264B4B60264B52
:103E00008B60264BCB60264B0B614FF480721023E6
:103E1000C1E905324FF48052C1E907224FF48062B4
:103E2000C1E90A231F48C8234B621BF01FF905464E
:103E300030B30120FDF7B4FD98B11B48FDF7D0FD6C
:103E4000FDF7DCFD1948FDF7CBFD1948FDF7C8FD6E
:103E5000FDF704FE1748FDF7C3FD17482946FDF797
:103E6000BFFD0B490F481BF08BF818B1BDE8384077
:103E7000FFF756BE06490B481BF0F8F80028F5D1AD
:103E8000084B6360002038BD6FF01500FBE700BFF2
:103E90007471000085CA2108A1CA2108BDCA210881
:103EA000D7CA2108C871000076892208B5522208B5
:103EB000C152220825512208E85E220808B540B107
:103EC000016831B104481BF049FABDE80840FFF72A
:103ED00027BE6FF0080008BDC871000010B5044689
:103EE00090B10B481BF012FC021E03DABDE8104033
:103EF000FFF716BE074BD9691B6AA360C4E900111E
:103F00009B1AE360002010BD6FF01500FBE700BFB7
:103F1000C871000074710000F8B50C4F0446386891
:103F20000D46164618B14FF0FF3104F0FBFB20465A
:103F300032462946FFF782FE0446386820B1002346
:103F40001A46194604F081F92046F8BD7071000048
:103F50007047704770B5C4B0054601A8FFF7F8FF79
:103F6000294601A8FFF7D8FE0446002836D1454D62
:103F7000454E02A901A8FFF7F3FE041E64DD9DF87B
:103F80000830002B79D0294602A81DF06EFC0028CD
:103F9000EFD0314602A81DF068FC0028E9D09DF85A
:103FA0000C31012B4FF0030034D1FDF7F9FC002850
:103FB000DFD03648FDF714FDFDF720FD3448FDF74E
:103FC0000FFD3448FDF70CFDFDF748FD3248FDF7C5
:103FD00007FD02A93148FDF703FDCAE70120FDF7FF
:103FE000DFFCA0B12948FDF7FBFCFDF707FD2C48DD
:103FF000FDF7F6FC2B48FDF7F3FCFDF72FFD2648F7
:10400000FDF7EEFC284822462946FDF7E9FC20464C
:1040100044B070BDFDF7C4FC0028AAD01B48FDF7D2
:10402000DFFCFDF7EBFC1A48FDF7DAFC1948FDF759
:10403000D7FCFDF713FD1848FDF7D2FC429A1B4848
:1040400002A9FDF7CDFC94E717D00120FDF7A8FCED
:1040500098B10E48FDF7C4FCFDF7D0FC1048FDF701
:10406000BFFC1048FDF7BCFCFDF7F8FC0A48FDF763
:10407000B7FC0F482146FDF7B3FC01A8FFF79EFEF1
:10408000C5E700BF815F2208805F22087689220889
:10409000105122081C51220825512208835F220852
:1040A000B5522208C1522208645F22088F5F22089D
:1040B000A85F220808B50120FDF772FCA0B10B48EB
:1040C000FDF78EFCFDF79AFC0948FDF789FC0948CD
:1040D000FDF786FCFDF7C2FC0748FDF781FCBDE853
:1040E00008400648FDF77CBC08BD00BF7689220861
:1040F000B5522208C152220825512208C15F220868
:1041000030B5C3B069460546FFF7CCFD00B328467D
:10411000FFF7F2FD0446D8B110F1110F18D00120BD
:10412000FDF73EFCA0B10B48FDF75AFCFDF766FC1D
:104130000948FDF755FC0948FDF752FCFDF78EFCD8
:104140000748FDF74DFC074822462946FDF748FC85
:1041500043B030BD76892208B5522208C1522208E8
:1041600025512208D55F2208F0B58BB0FFF7E2FC9D
:104170001F48FFF73DFED8B10120FDF711FC90B1BB
:104180001C48FDF72DFCFDF739FC1B48FDF728FC0A
:104190001A48FDF725FCFDF761FC1948FDF720FCE6
:1041A0001848FDF71DFC4FF0FF3420460BB0F0BD62
:1041B00006A8FFF793FE044640B30120FDF7F0FB8D
:1041C0000028F2D00B48FDF70BFCFDF717FC0A485E
:1041D000FDF706FC0948FDF703FCFDF73FFC084826
:1041E000FDF7FEFB21460848FDF7FAFBDDE700BFBF
:1041F0005400000076892208B5522208C1522208D4
:1042000025512208F95F2208166022080320FDF7D5
:10421000C7FBB0B1BA48FDF7E3FBFDF7EFFBB948C8
:10422000FDF7DEFBB848FDF7DBFBFDF717FCB748F1
:10423000FDF7D6FBDDE907315943B548890AFDF79B
:10424000CFFB0320FDF7ACFBB0B1AD48FDF7C8FBD9
:10425000FDF7D4FBAB48FDF7C3FBAB48FDF7C0FB54
:10426000FDF7FCFBA948FDF7BBFB0999079BA94893
:104270005943890AFDF7B4FB0320DDE90856FDF731
:104280008FFB30B39E48FDF7ABFBFDF7B7FB9D48B6
:10429000FDF7A6FB9C48FDF7A3FBFDF7DFFB9B4862
:1042A000FDF79EFBA81B1BF091FB9B4B00221BF014
:1042B00007FC064628460F461BF088FB02460B46C5
:1042C000304639461BF026FD02460B469348FDF763
:1042D00087FB934B1868FFF713FF00F06DFC9148C4
:1042E000FFF70EFF9048FFF70BFF9048FFF708FF1E
:1042F0008F48FFF705FF8F49062201A8FFF730FC22
:1043000038B98D49192201A8FFF798FC01A8FFF7D9
:1043100063FC8A49062202A8FFF722FC38B98849C3
:10432000152202A8FFF78AFC02A8FFF755FC854971
:10433000062203A8FFF714FC38B98349232203A8F7
:10434000FFF77CFC03A8FFF747FC8049062204A87E
:10435000FFF706FC48B97E4B0593042205A904A883
:10436000FFF76CFC04A8FFF737FC0320FDF718FBF0
:1043700090B16348FDF734FBFDF740FB6148FDF762
:104380002FFB6148FDF72CFBFDF768FB5F48FDF74D
:1043900027FB7048FDF724FB6F48FFF7DBFD051E88
:1043A00018DA0120FDF7FCFAA0B15548FDF718FB1B
:1043B000FDF724FB6948FDF713FB6948FDF710FB87
:1043C000FDF74CFB5148FDF70BFB634965482A4656
:1043D000FDF706FB0320FDF7E3FA90B14848FDF72F
:1043E000FFFAFDF70BFB4748FDF7FAFA4648FDF7E1
:1043F000F7FAFDF733FB4548FDF7F2FA5548FDF7AC
:10440000EFFA0320FDF7CCFA90B13D48FDF7E8FA4A
:10441000FDF7F4FA3B48FDF7E3FA3B48FDF7E0FA15
:10442000FDF71CFB3948FDF7DBFA4F48FDF7D8FADA
:104430000320FDF7B5FA90B13148FDF7D1FAFDF749
:10444000DDFA3048FDF7CCFA2F48FDF7C9FAFDF741
:1044500005FB2E48FDF7C4FA4448FDF7C1FA314880
:10446000FFF778FD051E17DA0120FDF799FA98B1DC
:104470002348FDF7B5FAFDF7C1FA3848FDF7B0FA61
:104480003748FDF7ADFAFDF7E9FA2048FDF7A8FA3D
:1044900037482946FDF7A4FA0320FDF781FA90B1C9
:1044A0001748FDF79DFAFDF7A9FA1648FDF798FAA7
:1044B0001548FDF795FAFDF7D1FA1448FDF790FA83
:1044C0002948FDF78DFA0320FDF76AFA90B10C48F0
:1044D000FDF786FAFDF792FA0A48FDF781FA0A48D5
:1044E000FDF77EFAFDF7BAFA0848FDF779FA214898
:1044F000FDF776FA0E48FFF72DFD051E3CE000BFE4
:1045000076892208105122081C51220825512208C0
:104510004060220856602208000059406B60220863
:104520005400000088602208946022089E602208DF
:10453000A8602208B9602208CC602208E660220840
:10454000FF602208156122082A6122084E612208B4
:1045500089504E476961220894612208B5522208A9
:10456000C152220899612208AE612208D96122084D
:10457000F56122080E62220817DA0120FDF710FA11
:1045800098B11748FDF72CFAFDF738FA1548FDF7F2
:1045900027FA1548FDF724FAFDF760FA1348FDF7EE
:1045A0001FFA13482946FDF71BFA0320FDF7F8F917
:1045B00000283FF4FAAD0A48FDF712FAFDF71EFA9B
:1045C0000C48FDF70DFA0C48FDF70AFAFDF746FA1C
:1045D0000648FDF705FA0948FDF702FAE5E500BFD0
:1045E00076892208B5522208C15222082551220894
:1045F0002F622208105122081C512208AE612208A5
:10460000F7B52E4E3468002C1BDD0120FDF7C8F9EC
:1046100098B12B48FDF7E4F9FDF7F0F92948FDF7CB
:10462000DFF92948FDF7DCF9FDF718FA2748FDF70F
:10463000D7F931682648FDF7D3F90025284603B09D
:10464000F0BD244F00904FF403735C43224B234A88
:104650001B68E51904F500744FF480713C4428464A
:104660001CF034FE00232046A5F80832FFF771FC49
:10467000204607222946FFF773FA041E1ADA0120A2
:10468000FDF78EF90028D8D00D48FDF7A9F9FDF700
:10469000B5F90C48FDF7A4F90B48FDF7A1F9FDF7B2
:1046A000DDF90A48FDF79CF9224629460C48FDF73A
:1046B00097F9C2E7336801333360BFE748720000FF
:1046C00076892208B5522208C152220825512208B3
:1046D0004D6222084C7200005400000070622208F3
:1046E0007A62220870B500F5007605463046FFF77D
:1046F000E5FB04460320FDF753F998B11C48FDF78C
:104700006FF9FDF77BF91B48FDF76AF91A48FDF7C9
:1047100067F9FDF7A3F91948FDF762F91848214632
:10472000FDF75EF93046FFF757FA041E1ADA01204A
:10473000FDF736F9A0B10E48FDF752F9FDF75EF925
:104740001048FDF74DF91048FDF74AF9FDF786F9D5
:104750000A48FDF745F90D4822462946FDF740F97C
:10476000204670BD0A4A1368013B13600024F7E736
:1047700076892208105122081C512208255122084E
:104780008E622208B5522208C1522208AA6222086B
:104790004872000084B038B5044605A880E80E00D1
:1047A0000146BC2204F50070FFF748FA051E20DA26
:1047B0000120FDF7F5F8A0B10F48FDF711F9FDF75D
:1047C0001DF90E48FDF70CF90D48FDF709F9FDF745
:1047D00045F90C48FDF704F90B482A462146FDF738
:1047E000FFF8FFF767FC4FF0FF30BDE8384004B03A
:1047F00070470020F9E700BF76892208B5522208E9
:10480000C152220825512208BF62220810B5ADF519
:10481000047D324B00901B68314A4FF4807104468E
:1048200002A81CF053FD42A902A8FFF73BFA00289A
:1048300039DB0420FDF7B4F8A0B12A48FDF7D0F821
:10484000FDF7DCF82848FDF7CBF82848FDF7C8F855
:10485000FDF704F92648FDF7C3F8829A254842A9D6
:10486000FDF7BEF80420829CBC23B4FBF3F4FDF7F3
:1048700097F8A0B11B48FDF7B3F8FDF7BFF81A4849
:10488000FDF7AEF81948FDF7ABF8FDF7E7F8184863
:10489000FDF7A6F81848224602A9FDF7A1F8204620
:1048A0000DF5047D10BD0120FDF77AF898B10D4893
:1048B000FDF796F8FDF7A2F81048FDF791F81048BB
:1048C000FDF78EF8FDF7CAF80948FDF789F80D489D
:1048D0002146FDF785F84FF0FF34E0E75400000073
:1048E00070622208768922088A5B2208965B220879
:1048F00025512208D4622208F7622208B552220804
:10490000C1522208E662220810B5ADF5047D324B93
:1049100000901B68314A4FF48071044602A81CF0D5
:10492000D5FC42A902A8FFF7BDF9002839DB042015
:10493000FDF736F8A0B12A48FDF752F8FDF75EF80A
:104940002848FDF74DF82848FDF74AF8FDF786F8A6
:104950002648FDF745F8829A254842A9FDF740F818
:104960000420829C2623B4FBF3F4FDF719F8A0B1D0
:104970001B48FDF735F8FDF741F81A48FDF730F808
:104980001948FDF72DF8FDF769F81848FDF728F8E4
:104990001848224602A9FDF723F820460DF5047DAC
:1049A00010BD0120FCF7FCFF98B10D48FDF718F889
:1049B000FDF724F81048FDF713F81048FDF710F83C
:1049C000FDF74CF80948FDF70BF80D482146FDF7B7
:1049D00007F84FF0FF34E0E7540000005B63220863
:1049E000768922088A5B2208965B220825512208D4
:1049F000D4622208F7622208B5522208C152220866
:104A0000E66222082DE9F041C4B05E4B00901B68BD
:104A100006460D4617464FF480715B4A04A81CF009
:104A200055FC03A8FFF795FA032204A903A8FFF792
:104A300097F8041E1CDA0120FCF7B2FFA0B153481E
:104A4000FCF7CEFFFCF7DAFF5148FCF7C9FF5148ED
:104A5000FCF7C6FFFDF702F84F48FCF7C1FF4F48CF
:104A6000224604A9FCF7BCFF204644B0BDE8F08113
:104A70004FF02608002208FB05F103A8FFF7F6F81F
:104A8000041E18DA0120FCF78BFF0028ECD03F4809
:104A9000FCF7A6FFFCF7B2FF3D48FCF7A1FF3D483D
:104AA000FCF79EFFFCF7DAFF3B48FCF799FF3C4818
:104AB000224604A9D6E74246394603A8FFF7A6F8DE
:104AC0000446E8B125281BDC0120FCF769FFA0B1F2
:104AD0002E48FCF785FFFCF791FF2D48FCF780FF7F
:104AE0002C48FCF77DFFFCF7B9FF2B48FCF778FF5B
:104AF0002C48224604A9FCF773FF4FF0FF34B3E7BC
:104B000003A8FFF769F8041E18DA0120FCF748FF34
:104B10000028F2D01D48FCF763FFFCF76FFF1C482C
:104B2000FCF75EFF1B48FCF75BFFFCF797FF1A489A
:104B3000FCF756FF1C48224604A9DCE73046FFF785
:104B4000E3FE0138A84201D000248DE70320FCF7E2
:104B500027FF0028F8D00D48FCF742FFFCF74EFF76
:104B60001248FCF73DFF1248FCF73AFFFCF776FFCE
:104B70000948FCF735FF04AA29460E48FCF730FF28
:104B8000E2E700BF540000005B6322087689220838
:104B9000B5522208C1522208255122087A62220801
:104BA000086322081C632208AA6222081051220806
:104BB0001C5122083563220810B5C2B01648694658
:104BC000FFF770F818B90024204642B010BD124813
:104BD000FFF792F804460028F5D010F1110FF2D03B
:104BE0000120FCF7DDFE0028EED00C48FCF7F8FEB3
:104BF000FCF704FF0A48FCF7F3FE0A48FCF7F0FE56
:104C0000FCF72CFF0848FCF7EBFE03490748224657
:104C1000FCF7E6FED8E700BF7A632208768922080F
:104C2000B5522208C152220825512208D55F220818
:104C3000F0B5C3B0034605460E4617464FF48071E3
:104C40003A4A02A81CF042FB012202A901A8FEF781
:104C500087FF831C04462BD1072202A901A8FEF777
:104C60007FFF0446C8B10120FCF79AFEE8B1304846
:104C7000FCF7B6FEFCF7C2FE2E48FCF7B1FE2E484C
:104C8000FCF7AEFEFCF7EAFE2C48FCF7A9FE2C4828
:104C900022462946FCF7A4FE07E001A8FEF79CFF88
:104CA0003A46214630461CF0D7FC204643B0F0BDC2
:104CB000C0B10120FCF774FE0028F6D01C48FCF7B8
:104CC0008FFEFCF79BFE1B48FCF78AFE1A48FCF798
:104CD00087FEFCF7C3FE1948FCF782FE19482246FE
:104CE0002946D7E73A46314601A8FEF78FFF041E52
:104CF00018DA0120FCF754FEA0B10D48FCF770FE55
:104D0000FCF77CFE0B48FCF76BFE0B48FCF768FEDB
:104D1000FCF7A4FE0948FCF763FE0B48224629462F
:104D2000FCF75EFE01A8FEF757FFBEE78663220888
:104D300076892208B5522208C1522208255122083C
:104D40009E632208CD632208FA632208F0B5C3B03F
:104D5000034605460E4617464FF48071274A02A8BF
:104D60001CF0B4FA062202A901A8FEF7F9FE0446D7
:104D7000D8B10120FCF714FEA0B12148FCF730FEA9
:104D8000FCF73CFE1F48FCF72BFE1F48FCF728FEF3
:104D9000FCF764FE1D48FCF723FE1D482246294609
:104DA000FCF71EFE204643B0F0BD3A46314601A84E
:104DB000FFF7B2F8041E1CDA0120FCF7F1FDA0B1E8
:104DC0000F48FCF70DFEFCF719FE0E48FCF708FE35
:104DD0000D48FCF705FEFCF741FE0C48FCF700FE11
:104DE0000C4822462946FCF7FBFD01A8FEF7F4FE1D
:104DF000D8E701A8FFF762F8F7E700BF866322084B
:104E000076892208B5522208C1522208255122086B
:104E100018642208486422081FB510220021684641
:104E20001CF01AFC102269460320FFF701FF184B03
:104E3000009A9A420FD0002200936623CDE9022304
:104E400069460A23102203208DF80430FFF77EFF05
:104E500005B05DF804FB0320FCF7A2FD0028F7D0A5
:104E60000C48FCF7BDFDFCF7C9FD0B48FCF7B8FD8D
:104E70000A48FCF7B5FDFCF7F1FD0948FCF7B0FD69
:104E80009DF80430039A00990648FCF7A9FDDFE776
:104E900055434D4176892208105122081C512208A1
:104EA000255122086764220884B070B5ACB030ACDC
:104EB00084E80F000A223F4CB1FBF2F502FB151506
:104EC00039B93D4A116030980021FCF73DFD606022
:104ED00001E0002DF7D0122303FB0543BDF8C820E5
:104EE0001A81BDF8CA205A81BDF8CC209A81DDF81C
:104EF000CE20C3F80E20DDF8D220C3F81220DDF852
:104F0000D620C3F816202D4B2D4A05FB0333B2EBF8
:104F1000730F05D200202CB0BDE8704004B070477C
:104F2000254A13682360032001331360FCF738FD22
:104F300098B12448FCF754FDFCF760FD2248FCF7CB
:104F40004FFD2248FCF74CFDFCF788FD2048FCF79C
:104F500047FD21681F48FCF743FD1F492668656827
:104F6000A468B02268461CF0E3FC1C482346006895
:104F700031462A46FFF70EFC04460028CAD001201D
:104F8000FCF70EFD98B10F48FCF72AFDFCF736FD43
:104F90001348FCF725FD1348FCF722FDFCF75EFDE6
:104FA0000B48FCF71DFD10482146FCF719FD4FF09A
:104FB000FF30B0E75874000014750000CDCCCCCCA5
:104FC0009999991976892208105122081C512208B2
:104FD00025512208A4642208647400002C75000086
:104FE000B5522208C1522208BD64220884B01FB500
:104FF0000DF1180C8CE80F000AAA07CA6B4603C310
:105000001A809CE80F00FFF74FFF05B05DF804EB36
:1050100004B07047012970B5044673D1FFF7F0FA68
:1050200005460420FCF7BCFC98B15F48FCF7D8FCAF
:10503000FCF7E4FC5D48FCF7D3FC5D48FCF7D0FCD2
:10504000FCF70CFD5B48FCF7CBFC5B482946FCF702
:10505000C7FCCDB90120FCF7A3FC002835D052488D
:10506000FCF7BEFCFCF7CAFC5448FCF7B9FC5448FA
:10507000FCF7B6FCFCF7F2FC4E48FCF7B1FC5148DB
:105080002146FCF7ADFC20E04F4E504935600F2023
:1050900000F0C4FBE0B10120FCF782FC90B1424873
:1050A000FCF79EFCFCF7AAFC4448FCF799FC44483A
:1050B000FCF796FCFCF7D2FC3E48FCF791FC444818
:1050C000FCF78EFC3068FFF70DFB4FF0FF3018E067
:1050D0000320FCF765FC98B13348FCF781FCFCF732
:1050E0008DFC3C48FCF77CFC3B48FCF779FCFCF76A
:1050F000B5FC3048FCF774FC38482146FCF770FCDE
:10510000002070BD0320FCF74BFC90B12648FCF753
:1051100067FCFCF773FC2F48FCF762FC2E48FCF799
:105120005FFCFCF79BFC2348FCF75AFC2C48FCF77F
:1051300057FC0021084600F071FB0320FCF730FC0F
:1051400090B11948FCF74CFCFCF758FC2148FCF7DF
:1051500047FC2148FCF744FCFCF780FC1548FCF7B1
:105160003FFC2048FCF73CFC174D2868FFF7BAFAD3
:10517000B8B10120FCF714FC0028A6D00A48FCF7BF
:105180002FFCFCF73BFC0D48FCF72AFC0C48FCF715
:1051900027FCFCF763FC0748FCF722FC1248214679
:1051A0006FE72860ACE700BF768922088A5B220897
:1051B000965B220825512208E2642208B552220893
:1051C000C1522208EF6422082C750000ED5F200810
:1051D00008652208105122081C5122081F65220868
:1051E0005065220862652208706522082DE9F341A6
:1051F000384EDFF810810446051D00F10C0715F844
:10520000012F304641461CF095F8BD4206F10206DA
:10521000F5D12379002B54D02F4B1B68BBB92F4BF2
:1052200001221A7011232E4A002406216846CDE976
:1052300000248DF80430FCF78DFB0821ADF8060042
:105240006846FDF787FC204602B0BDE8F0810220E9
:10525000FCF7A6FB90B12348FCF7C2FBFCF7CEFBA2
:105260002148FCF7BDFB2148FCF7BAFBFCF7F6FB35
:105270001F48FCF7B5FB1F48FCF7B2FB1E4D1F484B
:105280000021FFF7C7FE2B78C3B10220FCF788FB93
:1052900090B11448FCF7A4FBFCF7B0FB1248FCF7F4
:1052A0009FFB1248FCF79CFBFCF7D8FB1048FCF76F
:1052B00097FB1348FCF794FB00232B702379002BFA
:1052C000ADD104480021FFF7A5FE0028AAD01A237B
:1052D000A9E700BF1A7500002C75000019750000C1
:1052E0000208F21076892208935422089F5422085B
:1052F000255122088A652208187500006C51220881
:10530000BE652208835822082DE9F0438BB004467D
:1053100000210D2201A800911CF09EF96D46DFF8D6
:10532000D490E61C04F10B082F4616F8012F2846EE
:1053300049461BF0FFFF464505F10205F5D1254B17
:105340001B68D3B10220FCF72BFB90B12248FCF77D
:1053500047FBFCF753FB2148FCF742FB2048FCF7D6
:105360003FFBFCF77BFB1F48FCF73AFB1E48FCF7B2
:1053700037FB1E480021FFF74DFE3846FFF746FA7F
:1053800005B2002D4FF00D02194B05934FF00001AF
:1053900006A8BABF0025122611261CF05DF9636825
:1053A000CDF81930A8B2A368CDF81D30FCF7C6FAC5
:1053B0000F21ADF8210005A88DF81860FCF7CAFA96
:1053C0001121ADF8230005A8FDF7C4FB00200BB0A8
:1053D000BDE8F0832C7500007689220893542208DA
:1053E0009F54220825512208DD6522086C512208AD
:1053F0000211F211835822082DE9F04304469BB0B4
:10540000B0F80F00DFF81C91FCF79BFA002105466D
:105410000D2201A800911CF01FF96E4604F103084B
:1054200037460B3418F8012F304649461BF082FFEF
:10543000A04506F10206F5D10420FCF7B1FAA0B1AF
:105440003048FCF7CDFAFCF7D9FA2F48FCF7C8FA38
:105450002E48FCF7C5FAFCF701FB2D48FCF7C0FA13
:105460002C483A462946FCF7BBFA2622002105A81B
:105470001CF0F2F805AA29463846FFF7C3FA0028BF
:105480001DDA0120FCF78CFAA0B11E48FCF7A8FA3F
:10549000FCF7B4FA2048FCF7A3FA2048FCF7A0FA7E
:1054A000FCF7DCFA1A48FCF79BFA1D483A462946F5
:1054B000FCF796FA4FF0FF301BB0BDE8F0830023F5
:1054C000ADF8633002238DF83C300DF13D0205ABA1
:1054D0000DAD1C4603CCAC4210605160234602F176
:1054E0000802F6D120681060A388938027210FA8B6
:1054F000FCF730FA2921ADF863000FA8FDF72AFB6D
:105500000020D9E7768922088A5B2208965B220868
:1055100025512208F9652208B5522208C1522208F5
:1055200019662208835822082DE9F0438BB00446FF
:1055300000210D2201A800911CF08EF86D46DFF8C5
:10554000D490E61C04F10B082F4616F8012F2846CC
:1055500049461BF0EFFE464505F10205F5D1254B06
:105560001B68D3B10220FCF71BFA90B12248FCF76C
:1055700037FAFCF743FA2148FCF732FA2048FCF7E7
:105580002FFAFCF76BFA1F48FCF72AFA1E48FCF7C3
:1055900027FA1E480021FFF73DFD3846FFF7B4F912
:1055A00005B2002D4FF00D02194B05934FF000018D
:1055B00006A8BABF0025122611261CF04DF8636814
:1055C000CDF81930A8B2A368CDF81D30FCF7B6F9B4
:1055D0000F21ADF8210005A88DF81860FCF7BAF985
:1055E0001121ADF8230005A8FDF7B4FA00200BB097
:1055F000BDE8F0832C7500007689220893542208B8
:105600009F54220825512208DD6522086C5122088A
:105610000211F213835822082DE9F04304469BB08F
:10562000B0F80F00DFF81C91FCF78BF9002105465C
:105630000D2201A800911CF00FF86E4604F103083A
:1056400037460B3418F8012F304649461BF072FEDE
:10565000A04506F10206F5D10420FCF7A1F9A0B19E
:105660003048FCF7BDF9FCF7C9F92F48FCF7B8F949
:105670002E48FCF7B5F9FCF7F1F92D48FCF7B0F925
:105680002C483A462946FCF7ABF92622002105A80A
:105690001BF0E2FF05AA29463846FFF7B3F90028B8
:1056A0001DDA0120FCF77CF9A0B11E48FCF798F93F
:1056B000FCF7A4F92048FCF793F92048FCF790F98F
:1056C000FCF7CCF91A48FCF78BF91D483A462946F5
:1056D000FCF786F94FF0FF301BB0BDE8F0830023E4
:1056E000ADF8633002238DF83C300DF13D0205AB7F
:1056F0000DAD1C4603CCAC4210605160234602F154
:105700000802F6D120681060A388938027210FA893
:10571000FCF720F92921ADF863000FA8FDF71AFA6C
:105720000020D9E7768922088A5B2208965B220846
:1057300025512208F9652208B5522208C1522208D3
:105740001966220883582208F0B593B01EF078FC41
:10575000284F294C294D05903B78FBB90420FCF7D4
:105760001FF990B12648FCF73BF9FCF747F92548AB
:10577000FCF736F92448FCF733F9FCF76FF92348B6
:10578000FCF72EF92248FCF72BF9224B0020206071
:10579000286018601EF060FC13B0F0BDFCF796F8AE
:1057A00023680B9008A906A80C9300F015FABDF920
:1057B0001C30ADF83830089BCDF83A302E68099B84
:1057C000069ACDF83E300A9B0D92CDF8423046B194
:1057D00012AA12E907006B4603C31A800BAB0FCB6A
:1057E000B0472368013323600B4B05A819681EF0EE
:1057F00023FCB1E7347500003C75000040750000E3
:10580000768922088A5B2208965B220825512208A5
:105810004666220838750000307500002DE9F34116
:10582000384CDFF8188123680F46054678BB3BB338
:10583000354B1870354B186840000A2838BF0A20CD
:1058400001F0A9FF2368DBB10420FCF7A9F890B1AF
:105850002F48FCF7C5F8FCF7D1F82E48FCF7C0F844
:105860002D48FCF7BDF8FCF7F9F82C48FCF7B8F820
:105870002B48FCF7B5F820681EF0EEFB00232360F0
:105880000023C8F80030002002B0BDE8F0811E4EB1
:1058900023B100230A20337001F07DFF1B4AC8F8B2
:1058A00000704FF47A73B3FBF5F313601D4A1E4981
:1058B0001E480023136001251A22357000920194BE
:1058C0004FF400721EF010FCA842DCD02846FCF712
:1058D00067F890B10E48FCF783F8FCF78FF814488E
:1058E000FCF77EF81348FCF77BF8FCF7B7F80B4899
:1058F000FCF776F81048FCF773F8002333704FF08C
:10590000FF30C1E7387500003475000030750000C5
:10591000768922088A5B2208965B22082551220894
:10592000406622083C75000062662208496720082C
:10593000B5522208C15222086E6622084075000046
:1059400073B504466B46002845D1334A92E80300FC
:1059500083E80300E6B2194630460EF095F8054696
:10596000002840D00120FCF71BF898B12B48FCF729
:1059700037F8FCF743F82A48FCF732F82948FCF7D7
:105980002FF8FCF76BF82848FCF72AF82748294637
:10599000FCF726F80022114630460EF015F90446B1
:1059A000B8B10120FBF7FCFF98B11C48FCF718F8D0
:1059B000FCF724F81A48FCF713F81A48FCF710F81B
:1059C000FCF74CF81848FCF70BF819482146FCF78F
:1059D00007F802B070BD012801D1164AB6E70228C7
:1059E000B8D1154AB2E70420FBF7DAFF0028D1D07E
:1059F0000A48FBF7F5FFFCF701F81048FBF7F0FF4A
:105A00000F48FBF7EDFFFCF729F80748FBF7E8FF25
:105A10000C482146BCE700BF4800000076892208F8
:105A2000B5522208C1522208255122089266220846
:105A30000B67220840000000380000008A5B220843
:105A4000965B2208CE662208F8B500AF0D46BA8BE9
:105A500002F108010446C9086846A0EBC1018D4661
:105A60006846561C00F8013BB9691BF061FF2046EF
:105A700033466A46A9B20EF0C1F80446C0B101200F
:105A8000FBF78EFF98B10B48FBF7AAFFFBF7B6FFB9
:105A90000948FBF7A5FF0948FBF7A2FFFBF7DEFF6C
:105AA0000748FBF79DFF07482146FBF799FF0920B0
:105AB000BD46F8BD76892208B5522208C152220897
:105AC000255122085B67220830B587B08AB28DF86D
:105AD000043001AB02930A9B04930125BDF82C30DE
:105AE000039502A905930EF089F90446C0B1284632
:105AF000FBF756FF98B10B48FBF772FFFBF77EFFF1
:105B00000948FBF76DFF0948FBF76AFFFBF7A6FFA3
:105B10000748FBF765FF07482146FBF761FF0920AF
:105B200007B030BD76892208B5522208C15222083A
:105B300025512208A567220880B201F029BCFFF791
:105B4000FBBF000008B50120FBF72AFF98B10B4806
:105B5000FBF746FFFBF752FF0948FBF741FF0948F7
:105B6000FBF73EFFFBF77AFF0748FBF739FF0748D3
:105B70000121FBF735FF012008BD00BF768922080F
:105B8000B5522208C152220825512208A5672208D1
:105B900007B5CDE900230B4602466A210120FFF735
:105BA00093FF20B103B05DF804EBFFF7CBBF03B068
:105BB0005DF804FB07B5CDE900230B4602466A21D8
:105BC0000120FFF741FF20B103B05DF804EBFFF7C0
:105BD000B9BF03B05DF804FB7FB505460C464548E8
:105BE00001A900F06CFA0646002876D10146FBF7C1
:105BF00077FD9DF80430DA072ED502A93D480296BC
:105C0000ADF80C6000F08DFABDF908003A4E00F0D6
:105C100035F91EF0ADF907EE900AFDEEE77ABDF911
:105C20000A0017EE903A338000F028F91EF0A0F930
:105C300007EE900AFDEEE77ABDF90C0017EE903AF8
:105C4000738000F01BF91EF093F907EE900AFDEE49
:105C5000E77A17EE903AB3809DF804309B072CD575
:105C6000002302A923480293ADF80C3000F03AFA61
:105C7000BDF90800214E00F00FF91EF079F907EE8A
:105C8000900AFDEEE77ABDF90A00C6ED007A00F051
:105C900003F91EF06DF907EE900AFDEEE77ABDF903
:105CA0000C00C6ED017A00F0F7F81EF061F907EE7E
:105CB000900AFDEEE77AC6ED027A35B10E4B1A88EE
:105CC0002A805A889B886A80AB808CB10B4B1A68FB
:105CD00022605A6862609B6809E001210020FBF79E
:105CE000FFFC00232B806B80AB80C4E90033A360F2
:105CF00004B070BD5C75000054750000487500006C
:105D000037B5444C444B2360444B6360444BA36021
:105D10000A200023E360FFF70FFF0DF10601204684
:105D200000F024F90320FBF73BFEA0B13D48FBF750
:105D300057FEFBF763FE3C48FBF752FE3B48FBF780
:105D40004FFEFBF78BFE3A48FBF74AFE9DF8061024
:105D50003848FBF745FE9DF80630702B18D001201F
:105D6000FBF71EFE90B12F48FBF73AFEFBF746FE0D
:105D70003148FBF735FE3148FBF732FEFBF76EFE8C
:105D80002B48FBF72DFE2E48FBF72AFE03B030BD53
:105D900000210846FBF7A4FC1E481E4D042100F01C
:105DA00089F80DF10701284600F0B7F89DF8074083
:105DB000002CF6D10121174800F03CF903211548C9
:105DC00000F0DBF80321134800F005F921461148E3
:105DD00000F05EF904210F4800F043F9194B0D481B
:105DE000197821F00D0141F00D01197000F0B8F99A
:105DF0000121084800F017FA2146064800F0FCF996
:105E00000121044800F03DFA0421024800F022FA82
:105E1000BCE700BF5C750000B56B2008916B2008E3
:105E20003F6B200876892208105122081C51220855
:105E300025512208F2672208B5522208C1522208D1
:105E40000C6822084475000010B428B14468C0688A
:105E5000A4465DF8044B60474FF0FF305DF8044BFB
:105E6000704710B428B10468C068A4465DF8044BBC
:105E700060474FF0FF305DF8044B704707EE900A23
:105E80009FED047AF8EEE77A67EE877A17EE900ACC
:105E9000704700BF23DB793D07EE900A9FED047A3F
:105EA000F8EEE77A67EE877A17EE900A704700BF40
:105EB00000008C4273B5012301AA0E46122105464B
:105EC000FFF7C2FF012304466A4619462846FFF73A
:105ED000BBFF20181FD1B208C6F3400343EAC21328
:105EE0009DF8042002F07E0213438DF804309DF8E3
:105EF000003066F382038DF8003001AA01231221DD
:105F00002846FFF7AEFF012304466A461946284695
:105F1000FFF7A7FF204402B070BD73B5012301AAAB
:105F20000D4612210646FFF78FFF012304466A46FD
:105F300019463046FFF788FF201812D19DF804302B
:105F400003F00102DB095B0003EB82039DF80020F4
:105F5000C2F380021344022B06D0042B04D013B9E1
:105F6000287002B070BD01232B70FAE708B50A460D
:105F700001230F21FFF768FF08BD73B501230D460C
:105F80006A4610210646FFF75FFF10BB9DF8003000
:105F900065F303038DF800306A4601231021304673
:105FA000FFF75FFFA8B92D0913D0012301AA6221D1
:105FB0003046FFF749FF9DF8043065F301030446BE
:105FC0008DF8043001AA012362213046FFF749FF12
:105FD000204402B070BD73B501230D466A461121FD
:105FE0000646FFF731FF9DF8003065F303030446D2
:105FF0008DF800306A46012311213046FFF731FF4A
:10600000201815D12D0913D0012301AA6221304691
:10601000FFF71AFF9DF8043065F3010304468DF87D
:10602000043001AA012362213046FFF71AFF204401
:1060300002B070BD37B501230D4601AA12210446F6
:10604000FFF702FF58B99DF8043065F386138DF809
:10605000043001AA012312212046FFF702FF03B0FA
:1060600030BD37B501230D4601AA15210446FFF7BF
:10607000EBFE58B99DF8043065F303038DF8043046
:1060800001AA012315212046FFF7EBFE03B030BD26
:1060900037B501230D4601AA17210446FFF7D4FEA8
:1060A00058B99DF8043065F301038DF8043001AA56
:1060B000012317212046FFF7D4FE03B030BD13B5EE
:1060C00001230C4601AA1E21FFF7BEFE40B923782A
:1060D0009DF8042023F0070302F007021343237006
:1060E00002B010BD13B506230C466A462221FFF705
:1060F000ABFEA0B99DF801209DF8003003EB022310
:1061000023809DF803209DF8023003EB0223638077
:106110009DF805209DF8043003EB0223A38002B014
:1061200010BD13B506230C466A462821FFF78CFEE6
:10613000A0B99DF801209DF8003003EB02232380D5
:106140009DF803209DF8023003EB022363809DF845
:1061500005209DF8043003EB0223A38002B010BD9C
:106160007FB50D46012303AA13210646FFF76CFEF7
:106170009DF80C3065F3C30304468DF80C3003AA78
:10618000012313213046FFF76CFE201832D1012382
:1061900001AA63213046FFF757FEC5F38003C5F31C
:1061A000C0021B0143EA42139DF8042022F0300292
:1061B000134304468DF8043001AA012363213046BD
:1061C000FFF74FFE201815D1012302AA6F21304698
:1061D000FFF73AFE9DF80830C5F3400565F38613D6
:1061E00004468DF8083002AA01236F213046FFF7DC
:1061F00038FE204404B070BD37B501230D4601AA16
:1062000015210446FFF720FE58B99DF8043065F3C8
:1062100006138DF8043001AA012315212046FFF74B
:1062200020FE03B030BD37B501230D4601AA16216B
:106230000446FFF709FE58B99DF8043065F30003E2
:106240008DF8043001AA012316212046FFF709FE2C
:1062500003B030BD37B501230D4601AA172104460E
:10626000FFF7F2FD58B99DF8043065F347138DF838
:10627000043001AA012317212046FFF7F2FD03B0E5
:1062800030BD37B501230D4601AA18210446FFF79A
:10629000DBFD58B99DF8043065F3C3038DF8043075
:1062A00001AA012318212046FFF7DBFD03B030BD12
:1062B00082B000230193019BB3F57A6F01DB02B03A
:1062C0007047019B0133F5E70348002300681A4635
:1062D000194601F0BABF00BFD4850000024B4FF051
:1062E000FF31186802F01EBAD48500002DE9F04194
:1062F000069FDFF8E0802E481D46002388F8003016
:106300000068D31916462B4A0DF0E6FA044620B170
:106310000120FBF745FB30B90224274B4FF0E02268
:106320004FF0805119E02548FBF75AFBFBF766FB5D
:106330002348FBF755FB2348FBF752FBFBF78EFB8B
:106340002148FBF74DFB2148FBF74AFBE4E7C2F885
:10635000041DBFF34F8FBFF36F8F98F80000D8B9BB
:10636000013BF4D10120FBF71BFB90B11348FBF775
:1063700037FBFBF743FB1248FBF732FB1148FBF7F7
:106380002FFBFBF76BFB1048FBF72AFB1048FBF7D2
:1063900027FB0420BDE8F08135B12FB105493A460D
:1063A000314428461BF0C4FA201E18BF0120F1E733
:1063B0003C6301006C75000041420F0076892208A1
:1063C000B5522208C152220825512208216822080C
:1063D0003C6822083963010010B50446012002F030
:1063E00024F8144B1860B8B90120FBF7D9FA90B122
:1063F0001148FBF7F5FAFBF701FB1048FBF7F0FA41
:106400000F48FBF7EDFAFBF729FB0E48FBF7E8FA1C
:106410000D48FBF7E5FAFEE763684BB90B4B636287
:106420000B4BA3620B4BE3620B4BA3630B4BE3637E
:10643000002010BDD485000076892208B5522208BC
:10644000C15222082551220858682208ED722008FE
:10645000DD722008C9722008B1722008C027090027
:106460000FB437B506AB114C53F8045B0193FBF73F
:10647000C5FA0F48FBF7B4FA0E48FBF7B1FA0E481D
:10648000FBF7AEFA0D48FBF7ABFA019B2A464FF437
:10649000807120461BF014F821460948FBF7A0FA4A
:1064A00003B0BDE8304004B0704700BFD88500009D
:1064B000105122081C5122089068220825512208F8
:1064C0008259220800B9FEE790F835300333DBB279
:1064D000013BDB00013A21FA03F0083B13F1080FFE
:1064E00002F8010FF7D170470048704760000000C4
:1064F0001FB505220B468DF80F2000B9FEE701B944
:10650000FEE701220092446A0DF10F012030A047FE
:1065100004B010BD37B5C56B04460DF10701204628
:10652000FFF7E6FF9DF8073003F00103034313F084
:10653000FF0009D0A36B1DB103B19847013DECE703
:106540000248FFF78DFF042003B030BD9768220892
:10655000F0B5054685B000B9FEE766238DF80C302E
:106560000023009300F12006446A012203A930466B
:10657000A047044678B92846FFF7CCFF009499233A
:106580008DF80D306F6A234601220DF10D01304662
:10659000B847044618B10648FFF762FF05E02846F1
:1065A000FFF7B8FF04460028F5D1204605B0F0BD3E
:1065B000BC6822082DE9F043884685B017461E4680
:1065C000044600B9FEE703B9FEE790F8343003B99A
:1065D000FEE78B180269934207D91648FFF740FF80
:1065E0000525284605B0BDE8F083836A00F120093F
:1065F0000BB1484698472046FFF78CFF054698B9EF
:1066000003230DF10902414620468DF80830FFF7BB
:1066100059FF94F8352000970432656A3346D2B2A8
:1066200002A94846A8470546E36A002BD9D0484648
:106630009847D6E7DE68220830B5044685B000B931
:10664000FEE700290CBF042306238DF80E3000233B
:106650000093456A01220DF10E012030A84720B9B0
:106660000DF10F012046FFF743FF05B030BD0000DC
:10667000F0B5054685B000B9FEE790F8343003B9AF
:10668000FEE7836A00F120060BB1304698470121EE
:106690002846FFF7D1FF0446C0B9C7238DF80C3058
:1066A000AB8A6F6A1B071CD594238DF80D3049F611
:1066B0008023ADF80E3000900346042203A9304633
:1066C000B847044688B10B48FFF7CAFE00212846A8
:1066D000FFF7B2FFEB6A0BB130469847204605B092
:1066E000F0BD009003460122E8E72846FFF712FFBD
:1066F0000446EBE7046922082DE9FF470E46904661
:10670000044600B9FEE790F8343003B9FEE70369A8
:106710008A189A4207D93848FFF7A2FE052528466D
:1067200004B0BDE8F08731B9434504D104B0BDE8F9
:10673000F047FFF79DBFA36A04F1200A0BB1504652
:106740009847B8F1000F1FD112E0277FD4F81890B6
:1067500029E02046FFF7DEFE0546002841D1B6FBC2
:10676000F9F309FB136353B1A9EB0302424501D3CB
:10677000002536E0A3EB090398441644E1E7C14540
:10678000F6D2A8EB09084E4494F84430002BDCD034
:1067900042463146204600F0C7FB04EBC00090F8AB
:1067A0005870D0F8549001212046FFF745FF054668
:1067B000B8B90DF10902314620468DF80870FFF78F
:1067C00081FE94F83520009504322B46676AD2B2D8
:1067D00002A95046B84705460028BAD00748FFF737
:1067E0003FFE00212046FFF727FFE36A002B96D0EB
:1067F0005046984793E700BFDE68220833692208B5
:106800002DE9F04F884685B016469946044600B9F2
:10681000FEE7012B03D0B3F5807F00D0FEE794F8AC
:10682000343003B9FEE7226908EB0603934207D927
:106830002E48FFF715FE0527384605B0BDE8F08F56
:1068400004F120030393A36A0BB103989847DFF880
:10685000A8B047E001212046FFF7EEFE074660BBE7
:106860000223234A8BF8003041462046FFF72AFED8
:10687000B8FBF9F594F835A009FB15850AF1040A6F
:106880005FFA8AFA1DB3A9EB0505B54228BF354664
:106890000E992A460BEB0A001BF04AF800230093DE
:1068A000676A03980AEB05025946B847761BA84465
:1068B000074670B10F48FFF7D3FD00212046FFF7D0
:1068C000BBFEE36A002BB7D003989847B4E74D4668
:1068D000DBE72046FFF71EFE07460028EDD10E9BA2
:1068E0002B440E93002EB5D13746E6E7DE6822082A
:1068F000D98600005D692208D88600002DE9F04F96
:10690000848A1E46E30785B005468846174609D5A2
:1069100000964FF48073FFF773FF0446204605B0DE
:10692000BDE8F08F14F00404F8D090F834B0BBF157
:10693000000F00D1FEE78B180269934204D9414849
:10694000FFF78EFD0524E9E7836A00F120090BB10A
:106950004846984718F0010F0DD0012300961A46BB
:1069600041462846FFF74CFF044600284BD108F16A
:1069700001080136013F01212846FFF75DFE04466C
:10698000002840D1AD238DF808300236B844012FDD
:10699000A8EB070A12D800212846FFF74DFE04464F
:1069A00088BB012F33D1023E00963B463A46514602
:1069B0002846FFF725FF50B3044624E0BBF1000F43
:1069C0002BD00DF1090251462846FFF77BFD95F8C3
:1069D000353004A90433DAB251FA83F316F8021CF5
:1069E00003F8081C16F8011C03F8071C0023009389
:1069F00002326C6AD2B202A94846A0470446B0B13E
:106A00001148FFF72DFD00212846FFF715FEEB6A20
:106A1000002B83D04846984780E716F8023C8DF853
:106A2000093016F8013C8DF80A300122DEE72846CD
:106A3000FFF770FD023604460028E4D1023F83468A
:106A4000A5E700BFDE6822085D692208F0B516469A
